{"abi":[{"type":"function","name":"swap","inputs":[{"name":"pool","type":"address","internalType":"address"},{"name":"recipient","type":"address","internalType":"address"},{"name":"zeroForOne","type":"bool","internalType":"bool"},{"name":"sqrtPriceX96","type":"uint160","internalType":"uint160"},{"name":"amountSpecified","type":"int256","internalType":"int256"},{"name":"pay0","type":"uint256","internalType":"uint256"},{"name":"pay1","type":"uint256","internalType":"uint256"}],"outputs":[],"stateMutability":"nonpayable"},{"type":"function","name":"uniswapV3SwapCallback","inputs":[{"name":"","type":"int256","internalType":"int256"},{"name":"","type":"int256","internalType":"int256"},{"name":"data","type":"bytes","internalType":"bytes"}],"outputs":[],"stateMutability":"nonpayable"}],"bytecode":{"object":"0x608060405234801561001057600080fd5b506104a6806100206000396000f3fe608060405234801561001057600080fd5b50600436106100365760003560e01c8063f13cdf901461003b578063fa461e331461008f575b600080fd5b61008d600480360360e081101561005157600080fd5b506001600160a01b0381358116916020810135821691604082013515159160608101359091169060808101359060a08101359060c0013561010b565b005b61008d600480360360608110156100a557600080fd5b8135916020810135918101906060810160408201356401000000008111156100cc57600080fd5b8201836020820111156100de57600080fd5b8035906020019184600183028401116401000000008311171561010057600080fd5b509092509050610253565b866001600160a01b031663128acb088787868833888860405160200180846001600160a01b0316815260200183815260200182815260200193505050506040516020818303038152906040526040518663ffffffff1660e01b815260040180866001600160a01b031681526020018515158152602001848152602001836001600160a01b0316815260200180602001828103825283818151815260200191508051906020019080838360005b838110156101cf5781810151838201526020016101b7565b50505050905090810190601f1680156101fc5780820380516001836020036101000a031916815260200191505b5096505050505050506040805180830381600087803b15801561021e57600080fd5b505af1158015610232573d6000803e3d6000fd5b505050506040513d604081101561024857600080fd5b505050505050505050565b60008060008484606081101561026857600080fd5b506001600160a01b03813516935060208101359250604001359050811561037957336001600160a01b0316630dfe16816040518163ffffffff1660e01b815260040160206040518083038186803b1580156102c257600080fd5b505afa1580156102d6573d6000803e3d6000fd5b505050506040513d60208110156102ec57600080fd5b5051604080516323b872dd60e01b81526001600160a01b03868116600483015233602483015260448201869052915191909216916323b872dd9160648083019260209291908290030181600087803b15801561034757600080fd5b505af115801561035b573d6000803e3d6000fd5b505050506040513d602081101561037157600080fd5b506104679050565b801561046757336001600160a01b031663d21220a76040518163ffffffff1660e01b815260040160206040518083038186803b1580156103b857600080fd5b505afa1580156103cc573d6000803e3d6000fd5b505050506040513d60208110156103e257600080fd5b5051604080516323b872dd60e01b81526001600160a01b03868116600483015233602483015260448201859052915191909216916323b872dd9160648083019260209291908290030181600087803b15801561043d57600080fd5b505af1158015610451573d6000803e3d6000fd5b505050506040513d602081101561024857600080fd5b5050505050505056fea264697066735822122009fe2506a0bf4d40eab43ffcc579879a8c0ae7d39fecaac1db89cf8f2128508c64736f6c63430007060033","linkReferences":{}},"methodIdentifiers":{"swap(address,address,bool,uint160,int256,uint256,uint256)":"f13cdf90","uniswapV3SwapCallback(int256,int256,bytes)":"fa461e33"},"id":53}