{"abi":[{"type":"function","name":"callsIntoNoDelegateCallFunction","inputs":[],"outputs":[],"stateMutability":"view"},{"type":"function","name":"canBeDelegateCalled","inputs":[],"outputs":[{"name":"","type":"uint256","internalType":"uint256"}],"stateMutability":"view"},{"type":"function","name":"cannotBeDelegateCalled","inputs":[],"outputs":[{"name":"","type":"uint256","internalType":"uint256"}],"stateMutability":"view"},{"type":"function","name":"getGasCostOfCanBeDelegateCalled","inputs":[],"outputs":[{"name":"","type":"uint256","internalType":"uint256"}],"stateMutability":"view"},{"type":"function","name":"getGasCostOfCannotBeDelegateCalled","inputs":[],"outputs":[{"name":"","type":"uint256","internalType":"uint256"}],"stateMutability":"view"}],"bytecode":{"object":"0x60a060405234801561001057600080fd5b5030606081901b6080526101546100306000398060ec52506101546000f3fe608060405234801561001057600080fd5b50600436106100575760003560e01c80633045a6e01461005c5780633c7c8dd014610076578063423ecb051461007e5780636427016414610086578063f45f416e14610090575b600080fd5b610064610098565b60408051918252519081900360200190f35b6100646100af565b6100646100b9565b61008e6100cd565b005b6100646100d7565b6000805a90506100a66100d7565b505a9003905090565b6000805a90506100a65b60006100c36100e1565b6005425b04905090565b6100d5610116565b565b60006005426100c7565b306001600160a01b037f000000000000000000000000000000000000000000000000000000000000000016146100d557600080fd5b6100d56100e156fea2646970667358221220ecb733f655f0cf22be53551beb3a2844410fdc5eabb3cb4cd636ca68a546939964736f6c63430007060033","linkReferences":{}},"methodIdentifiers":{"callsIntoNoDelegateCallFunction()":"64270164","canBeDelegateCalled()":"f45f416e","cannotBeDelegateCalled()":"423ecb05","getGasCostOfCanBeDelegateCalled()":"3045a6e0","getGasCostOfCannotBeDelegateCalled()":"3c7c8dd0"},"id":42}